:1000000031C600004CC600004AC600000C94252EE4
:1000100046C6000044C6000042C6000040C60000BC
:100020003EC600003CC600000C94A9330C94753405
:100030000C94622B34C6000032C6000030C60000AB
:100040002EC600002CC600002AC6000028C60000EC
:1000500026C600000C94072C22C6000020C6000013
:100060001EC600001CC600001AC6000018C600000C
:1000700016C6000014C6000012C6000010C600001C
:100080000EC600000CC600000AC6000008C600002C
:1000900006C6000004C6000002C6000000C600003C
:1000A000FEC50000FCC50000FAC500003A002C2087
:1000B0006B007800556E6465660041646A75737400
:1000C000005261697365004C6F7765720044656624
:1000D00061756C74004C617965723A200080818290
:1000E000838485868788898A8B8C8D8E8F90919268
:1000F0009394A0A1A2A3A4A5A6A7A8A9AAABACADBE
:10010000AEAFB0B1B2B3B4C0C1C2C3C4C5C6C7C834
:10011000C9CACBCCCDCECFD0D1D2D3D400202020D1
:10012000206162636465666768696A6B6C6D6E6F97
:10013000707172737475767778797A3132333435B9
:100140003637383930524542545F2D3D5B5D5C2374
:100150003B27602C2E2F2020202B0014001A000893
:100160000015001700E00004001600070009000A4F
:1001700000E1001D001B0006001900050000000042
:10018000000000E300777C2C002A00130012000C12
:100190000018001C00340033000F000E000D000B8F
:1001A0000029003800370036001000110000000060
:1001B000000000E600787C28002B001E001F0020B5
:1001C0000021002200E0000000000000000000000C
:1001D00000E100000000000000000000000000003E
:1001E000000000E30001002C002A00270026002563
:1001F0000024002300000000004F00520051005076
:1002000000000000000000000000000000000000EE
:10021000000000E600010028002B001E021F022043
:100220000221022202E000000000000000000000A5
:1002300000E10000000000000000000000000000DD
:10024000000000E30001002C002A002702260225FE
:1002500002240223023500310030002F002E002D31
:10026000003502310230022F022E022D0200000062
:10027000000000E60001002800007C0000000000F3
:1002800000000000002078237825782778000000FF
:1002900000217824782678287800000000000000EB
:1002A000000000E30001002C00000000000000003E
:1002B000000000000000000000000000000000003E
:1002C000000000000000000000000000000000002E
:1002D000000000E600010028007F3F1F6432146424
:1002E0003214783C1E1E140A052223252628292AAA
:1002F0002C2D2F3032333536383A3B3D3E40424389
:100300004547494A4C4E5051535557595A5C5E60C7
:1003100062646668696B6D6F71737577797B7D7FD9
:1003200081838587898A8C8E90929496989A9C9ED8
:100330009FA1A3A5A7A8AAACAEAFB1B3B4B6B8B9F4
:10034000BBBCBEBFC1C2C3C5C6C7C9CACBCCCDCE5C
:10035000D0D1D2D2D3D4D5D6D7D7D8D9D9DADADB3F
:10036000DBDBDCDCDCDCDCDDDDDDDDDCDCDCDCDCCB
:10037000DBDBDBDADAD9D9D8D7D7D6D5D4D3D2D20A
:10038000D1D0CECDCCCBCAC9C7C6C5C3C2C1BFBEF2
:10039000BCBBB9B8B6B4B3B1AFAEACAAA8A7A5A35D
:1003A000A19F9E9C9A98969492908E8C8A8987851C
:1003B00083817F7D7B79777573716F6D6B696866FB
:1003C0006462605E5C5A5957555351504E4C4A49CD
:1003D00047454342403E3D3B3A3836353332302F75
:1003E0002D2C2A29282625232200010101010101A3
:1003F00001010102020202020202020203030303DC
:1004000003030303040404040404040505050505AB
:100410000606060606070707070708080808090969
:1004200009090A0A0A0B0B0B0C0C0C0D0D0D0E0E14
:100430000E0F0F0F101011111112121313141415A7
:100440001516161717181819191A1A1B1B1C1D1D1B
:100450001E1E1F2020212222232424252626272871
:1004600029292A2B2C2D2D2E2F30313232333435A1
:10047000363738393A3B3C3D3E3F404142434445A4
:10048000464748494A4C4D4E4F5051535455565883
:10049000595A5B5D5E5F616264656668696B6C6D2D
:1004A0006F7072737577787A7B7D7E8082838587A3
:1004B000888A8C8E8F91939596989A9C9EA0A2A3E1
:1004C000A5A7A9ABADAFB1B3B5B7BABCBEC0C2C4E6
:1004D000C6C9CBCDCFD1D4D6D8DBDDDFE2E4E7E9A6
:1004E000EBEEF0F3F5F8FAFDFF00AE00AF00DA0234
:1004F00081FFD9F1DB20A4A62EAF00A0C0D300005D
:10050000A1C8D30000AED580A81F408D14200000E4
:1005100000000000003E5B4F5B3E003E6B4F6B3EB9
:10052000001C3E7C3E1C00183C7E3C18001C577D85
:10053000571C001C5E7F5E1C0000183C180000FF6A
:10054000E7C3E7FF00001824180000FFE7DBE7FF20
:100550000030483A060E00262979292600407F05FA
:10056000050700407F05253F005A3CE73C5A007FC5
:100570003E1C1C0800081C1C3E7F0014227F221415
:10058000005F5F005F5F0006097F017F00006689F2
:10059000956A0060606060600094A2FFA294000809
:1005A000047E04080010207E20100008082A1C0881
:1005B00000081C2A0808001E10101010000C1E0C49
:1005C0001E0C0030383E383000060E3E0E0600008D
:1005D000000000000000005F0000000007000700AE
:1005E00000147F147F1400242A7F2A12002313088A
:1005F00064620036495620500000080703000000DE
:100600001C224100000041221C00002A1C7F1C2AE1
:100610000008083E08080000807030000008080844
:100620000808000000606000002010080402003E7E
:100630005149453E0000427F400000724949494609
:10064000002141494D33001814127F100027454501
:100650004539003C4A49493100412111090700361A
:100660004949493600464949291E00000014000046
:10067000000040340000000008142241001414144B
:100680001414000041221408000201590906003E1A
:10069000415D594E007C1211127C007F4949493658
:1006A000003E41414122007F4141413E007F494996
:1006B0004941007F09090901003E41415173007F12
:1006C0000808087F0000417F4100002040413F01B1
:1006D000007F08142241007F40404040007F021C00
:1006E000027F007F0408107F003E4141413E007FB1
:1006F00009090906003E4151215E007F091929467A
:100700000026494949320003017F0103003F404070
:10071000403F001F2040201F003F4038403F006303
:1007200014081463000304780403006159494D431D
:1007300000007F41414100020408102000004141B7
:10074000417F00040201020400404040404000009C
:1007500003070800002054547840007F28444438A0
:1007600000384444442800384444287F0038545416
:1007700054180000087E0902001824241C78007F09
:10078000080404780000447D4000002040403D0003
:10079000007F102844000000417F4000007C047866
:1007A0000478007C08040478003844444438007C11
:1007B0001824241800182424187C007C0804040839
:1007C0000048545454240004043F4424003C404056
:1007D000207C001C2040201C003C4030403C004459
:1007E00028102844004C9090907C004464544C4461
:1007F000000008364100000000770000000041368C
:100800000800000201020402003C2623263C0000EE
:10081000000000000000000000000000000000C018
:10082000E0F0F8F81800C0F0FCFEFFFFFFFFFFFF4C
:10083000FF7E00000000000000000080C0E0E0E05B
:10084000E0E0E0E0E0C0800000000080C0E0E0E028
:10085000E0E0E0E0E0C080000000E0E0C0C0E0E0F8
:10086000E0E00000E0E0C0C0E0E0E0E0E0C08000E8
:1008700000000080C0E0E0E0E0E0E0E0E0C08000F8
:1008800000000000000000000000000000E0F0F0A8
:10089000F0E0ECEEF7F37020007C7C7C7E007E7E46
:1008A0007E7F7F7F000080C0E07E5B4F5BFEC000EC
:1008B00000C000DCD7DEDEDED7DC00C000000000B8
:1008C0000000000000000000000000000000000028
:1008D0000000000000000000F8FCFEFFE000FFFF49
:1008E000FFFFFFFF80FFFFFFFFFFFFFFFFFF1F076F
:1008F00001000000000000000000FFFFFF81000079
:100900000000000081C3C3C30000FFFFFF8100009F
:100910000000000081FFFFFF0000FFFFFF0100005B
:1009200000000000FFFFFF010000000001FFFFFFCB
:100930000000FFFFFF9D1C1C1C1C1C1C9DDFDFDF3B
:10094000000000000000000000000000000F1F3F3A
:100950007F7F7F7F7F3F1E0C001F1F1F3F003F3F99
:100960003F7F7F7F00307B7F7830202030787F3B57
:100970000003000F7F0F0F0F7F0F00030000000028
:100980000000000000000000000000000000000067
:100990000000000000000000030F1F3F3F3F3F1F0B
:1009A0001F3F3F7F7F7F3F3F1F3F7F7F7F7F7C7861
:1009B00078381C0F00000000000000010307070743
:1009C00007070707070301000000000103070707E7
:1009D00007070707070301000000070707000000DB
:1009E00000000000070707000000000000070707DD
:1009F00000000001030707070707070707030100B7
:100A000000000000000000000000000000000000E6
:100A100000000000000000000000000000000000D6
:100A200000000000000000000000000000000000C6
:100A300000000000000000000000000000000000B6
:100A400000000000000000000000000000000000A6
:100A5000000000000000002A2B2800000000000019
:100A60000000000000000000000029000000002C31
:100A70001E3420212224342627252E362D373827D0
:100A80001E1F202122232425263333362E37381FDC
:100A90000405060708090A0B0C0D0E0F101112139E
:100AA0001415161718191A1B1C1D2F3130232D353C
:100AB0000405060708090A0B0C0D0E0F101112137E
:100AC0001415161718191A1B1C1D2F3130354C0020
:100AD0000000000000000000000000000000000016
:100AE0000000000000000000000000000000000006
:100AF0000000007E0F00D4FFFFFFC7000000780C4D
:100B00000343006F0072006E006500000010036672
:100B1000006F006F007300740061006E000000043D
:100B200003090409025B00030100A0FA09040000A4
:100B30000103010100092111010001224400070500
:100B400081030800010904010002030000000921DB
:100B50001101000122220007058203200001070580
:100B60000303200001090402000103000000092121
:100B700011010001226D000705840320000112010C
:100B800000020000000853460100010001020001BC
:100B90000660FF0961A1010962150026FF0095208A
:100BA000750881020963150026FF009520750891DC
:100BB00002C005010980A101850319012AB70015AA
:100BC0000126B700950175108100C0050C0901A12F
:100BD00001850419012AA002150126A002950175BC
:100BE000108100C005010906A1018506050719E06D
:100BF00029E71500250195087501810205071900EF
:100C000029EF1500250195F07501810205081901EC
:100C10002905950575019102950175039101C0059E
:100C2000010906A101050719E029E715002501952D
:100C300008750181029501750881010507190029D0
:100C4000FF150026FF0095067508810005081901AB
:100C5000290515002501950575019102950175037A
:100C60009101C00011241FBECFEFDAE0DEBFCDBF7F
:100C700011E0A0E0B1E0E8EEFEE602C005900D92C2
:100C8000AE3FB107D9F726E0AEEFB1E001C01D924B
:100C9000A733B207E1F70E94F7180C947237B0C976
:100CA000CF93C82F0E946F16882319F08C2FCF91F5
:100CB000089582E0FCCF60E08DED90E00C9460211F
:100CC00008950E949C22882309F44FC00E946F1649
:100CD000882309F458C060E085ED90E00E9460210F
:100CE00080911F021AD2813009F441C050F0823045
:100CF00009F441C0833009F442C060E084EB90E025
:100D000003C060E08DEC90E00E9471218091590356
:100D100060E0805D0E949D2060E082EB90E00E9498
:100D200060218091580360E0805D0E949D2060E01A
:100D30008EEA90E00E94602160E280915A039091D7
:100D40005B03CBD1FC01019620812032D9F360E016
:100D5000CF010E94462160E08CEA90E00E94602171
:100D600060E0809100010E949D2080E0089560E095
:100D700087EC90E0C9CF60E081EC90E0C5CF60E007
:100D80008AEB90E0C1CF97DFF0CF0F931F93CF9303
:100D9000DF93EC018B01FB018581882339F181818F
:100DA0008093590380818093580380E280930001EF
:100DB000D0935B03C0935A03CE01905281159042A9
:100DC000E8F4FB018681807F59F0FE01FF27ED33B7
:100DD000F10560F4E35EFE4FE491E093000106C08C
:100DE0008D2F8F709AD18D2F807197D1B801CE0140
:100DF00040D0DF91CF911F910F910895CE01905473
:100E00008115904120F4FB018681807FF1F6CE01AF
:100E10009A958115FFE19F07C0F2805A9145FE0126
:100E20008097A8F68C2F8F7078D18C2FDDCF8430EF
:100E3000B8F46830A8F4463098F4E42FF0E096E077
:100E4000699FE00DF11D112490E3899FE00DF11DD4
:100E50001124EE0FFF1FE75AFE4F859194910895DC
:100E600081E090E0089581E00895FDCF089581E04C
:100E70000895F9CF08950895FECF0895A6E0B0E053
:100E8000E4E4F7E00C94993649835A839E833091C9
:100E90000C0289819A81311117C03E81332389F078
:100EA000222379F05CD5182F682F89819A8135D556
:100EB00069817A81812F0E9473132696E3E00C9456
:100EC000B5363CD5182FF4CF4AD569817A81F3CF56
:100ED000FC01262F4081518162817381848195813B
:100EE000CDCF0895CF93DF93EC0161E0F1DFBE0138
:100EF000BCDFDF91CF910895CF93DF93EC0160E0E9
:100F0000E7DFBE01B9DFDF91CF91089581E0089559
:100F1000FDCF0895CF93C82F12D48C2FF9DF2FEF78
:100F200084E39CE0215080409040E1F700C0000045
:100F3000CF91089581E0EEDF0C942D2C089580E090
:100F4000E9DF0C943E2C08950F931F93CF93DF930A
:100F50008C0161E0BDDFEC01F801858181110E9407
:100F6000481FB801CE010E945928811106C080E0B7
:100F7000DF91CF911F910F910895B801CE0105DF48
:100F80008823A9F3B801CE010E947227882379F340
:100F9000B801CE010E94FF24882349F3B801CE0195
:100FA0000E94D724882319F3B801CE010E94621F42
:100FB0008823E9F2B801CE010E94BC278823B9F248
:100FC000F8018581882361F0C330FCE7DF07D9F0A1
:100FD00050F4C115ECE7DE07A1F0C130DC47A9F001
:100FE000C80145DFC5CFCB358CE7D80799F0CC35A4
:100FF000ECE7DE0761F0CA35DC4791F70E94D810B4
:10100000EFCF98DFB4CF0E94DE1099DFB0CF0E94FF
:10101000CF10E6CF0E94DB10E3CF0E94432BA3D07A
:101020000E945E1D0C9482220895A0D00E94681E2A
:101030000C94472B08954F925F926F927F928F92FC
:101040009F92AF92BF92CF92DF92EF92FF920F9357
:10105000CF93DF936C0149015A01EB012197C80F2F
:10106000D91F18828AE0482E512C612C712C6C0DEE
:101070007D1D7B0181E0E81AF108CC15DD0589F4BE
:10108000CE01DF91CF910F91FF90EF90DF90CF9045
:10109000BF90AF909F908F907F906F905F904F9098
:1010A0000895C501B401A30192010E945B36605D01
:1010B000603319F4EC16FD0631F081149104A1049B
:1010C000B10409F4602F6A93C501B401A301920130
:1010D0000E945B3649015A01D0CF0F932091010144
:1010E000309102012817390721F4209106022617B2
:1010F00089F0062F9093020180930101609306020C
:101100009C0150E040E066E070E080E092E093DF18
:101110000F91089580E092E0FBCF982F92959F70F9
:1011200020E011F0892F24E0982F9695969511F0E4
:101130002E5F892F982F969509F02F5F822F0895A3
:1011400081E008950895CF93DF93D82FF9DFC82F5A
:10115000882311F08D2FF6DF8C2FDF91CF9108952A
:101160000895F1CF089580E0FCCF08950E94C5292D
:10117000F8CF0895CF930E94C529C82F8091070208
:101180008C1771F0C09307020E94D02B6093080265
:101190007093090280930A0290930B028C2FE1DF77
:1011A000CF910895ADE0B0E0E8EDF8E00C949A3608
:1011B000488759876A877B878C879D87911113D7CA
:1011C0001F8286E0FE013896DE01119601900D9295
:1011D0008A95E1F78D8181110CC029813A814B817B
:1011E0005C816D817E818F814CD62D96E2E00C94DE
:1011F000B636CE01019676DE8111EFCFF6CFFC0137
:101200002481213019F480819181D5C30895CF9331
:10121000882391F0C82F8CEF8C0F813A78F48C2FB3
:101220000E945A2A882321F08C2F0E94F82A66D720
:101230008C2F0E94E32A62D7CF91089580E28C0F11
:10124000883040F4C77081E001C0880FCA95EAF782
:10125000ABD6F1CFEBE5EC0FE33040F4F0E0ED5727
:10126000FE4F808190E00E94F229E6CFC85ACB3130
:1012700018F7EC2FF0E0EE0FFF1FE35BFE4F8081CD
:1012800091810E94172AD8CF882329F19CEF980FCB
:10129000913A20F40E94F82A31C7089590E2980FFD
:1012A000983048F4877091E001C0990F8A95EAF769
:1012B000892F80D6F1CF9BE5980F933028F490E0EA
:1012C00080E00C94F2290895885A8B3120F490E044
:1012D00080E00C94172A08951F93CF93DF93182F63
:1012E000EB0195DF209731F4812FCEDFDF91CF9195
:1012F0001F9108958FE99FE00197F1F700C000006A
:101300002197F0CF70E060E0893311F460E570E080
:10131000E3CF0895882311F047D6F0C608958823B7
:1013200011F048D6EBC60895B0E0A0E0EAE9F9E094
:101330000C9494366C01D62FC72FFC0115810681C1
:1013400002950F7027D6E82E8823E9F0E12E1123AD
:10135000D1F08C2F807F803461F080E28D0F883057
:1013600060F18C2F807E803221F4D23030F1002366
:1013700021F180915D0382FF20C082E0E8D60AD689
:1013800091E0E82EE926FC2EF2949FE0F922FBE0A2
:10139000FF1508F4AFC0EF2DF0E0EF52F64F0C94BC
:1013A0007D36DF09DF09190A190A730A7A0A7A0AEF
:1013B0007A0A940AF30A000B000BE12CE4CF0C2FFD
:1013C0000F70C07F11F00295007F112381F0002380
:1013D00049F080E28D0F883010F0D11105C0802FC8
:1013E000E3D58CD68D2F44C0802FEFD5FACF8D2F2B
:1013F0004BDF002361F080E28D0F883010F0D111B7
:1014000003C0802FD7D502C0802FE5D577D6EE2038
:1014100059F0BCD580FD08C0F6011582B1D5F7D1D1
:10142000C60160D1ADD5FED1CDB7DEB7E8E00C94F2
:10143000B0362C2F2F70F22EC07FC03219F0F294EC
:1014400080EFF822DD2341F0D13089F1112309F436
:101450003AC00023D1F0C6CF80915D0382FD11C058
:10146000112341F0FF2019F08F2D9ED547D680E043
:10147000CEDECDCF80E008DFFF2009F4C8CF8F2D6E
:10148000C1CF112359F0011103C08F2D43DFBFCF0E
:10149000013009F0BCCF8F2DBAD5B9CF0111B7CF2C
:1014A0008F2D3DDF8F2DBED58F2DA3D5B0CF11232E
:1014B00021F0063008F0ABCFE8CF053008F0A7CF19
:1014C0008F2D2DDFA4CF0023D9F3D93349F48FEF2B
:1014D00097EEE3E081509040E040E1F700C000006B
:1014E0008D2FD2DE94CF8C2F86958695837041F018
:1014F000813081F088EF8F0D843008F088CF3AC0BA
:101500008D2F9C2F9370111102C080E090E00E94FB
:10151000F2297DCF8D2F9C2F9370111102C080E096
:1015200090E00E94172A73CF8C2F837069F51111F8
:1015300021C04D2F429546954770440F440F8D2F83
:101540008F70042E01C0880F0A94EAF720E0D4FFC0
:1015500007C02FE030E001C0220F4A95EAF720953E
:10156000822BC695C695C370C23051F058F4C13075
:1015700029F030D10E94C529F4DD49CF26D1FACF18
:101580002ED1F8CF20D1F6CF8695112311F08C2FD4
:101590008170882379F34D2F429546954770440F0B
:1015A000440F8D2F8F70042E01C0880F0A94EAF724
:1015B00020E0D4FF07C02FE030E001C0220F4A95A1
:1015C000EAF72095822BC695C695C370C23039F0D4
:1015D00040F4C13011F042D1CDCF3BD1CBCF43D17C
:1015E000C9CF06D1C7CFCF70112329F08C2F0FD1CF
:1015F0008D2F90DEBFCF8D2F92DE8C2F13D1BACFDF
:10160000D23F49F168F4D03FC9F0D13F89F01123AE
:1016100009F441C0002309F43BC08D2FF8DD6ACFE7
:10162000D33FF9F0D43F99F780915D0382FD21C04B
:101630008C2F8F71112399F0EAD05CCF112339F0F0
:10164000053008F057CF8C2F8F71F8D053CF06306C
:1016500008F050CFF8CF8C2F8F71112369F3E2D0AF
:1016600049CF112321F08C2F8F71C9D043CFC4D023
:1016700041CF112329F063E08C2F8F714ED53ACFE3
:1016800081E065D5023008F435CF82E060D532CFF5
:101690008C2F8F71D1CF002371F0D93349F4FFEF34
:1016A00027EE83E0F15020408040E1F700C00000C9
:1016B0008D2FEADD1FCF8C2F8F71D1CF0F931F930A
:1016C000CF93DF93EC01688179818D817DD18C018D
:1016D000CFD078D0B801CE0127DEDF91CF911F9116
:1016E0000F910895CF93DF93FC012481222381F091
:1016F000EC012ADC81110FC04DD4882349F08D8183
:10170000882331F080915D0382FF02C082E01FD503
:10171000DF91CF910895CE01D1DFCE01EDDBF8CF7F
:1017200090E080E00E94F22990E080E00E94172A79
:101730005AD4E4C408950E940D2BF2CF089542D4E8
:10174000FACF089592959F70963089F050F4925098
:10175000923058F4803F19F030F4883E30F481E044
:1017600008959A50F5CF843FD1F380E00895883EE4
:10177000B0F3813FD1F7F3CFFC012481222329F07C
:101780008081918118D1DECF089580E00895A6E090
:10179000B0E0EDECFBE00C949A362696E2E00C9477
:1017A000B636A7E0B0E0E7EDFBE00C949A3627965A
:1017B000E2E00C94B6360895FECF0895FDDF8093E5
:1017C000200208950895FACF089590912002892B60
:1017D000F5CF0895909120028923F0CF089590913C
:1017E00020028927EBCF0895E6CF0895FDCF089515
:1017F000FDDF80931F02089580E0FACF089591E005
:1018000001C0990F8A95EAF7892FF2CF089521E058
:1018100030E001C0220F8A95EAF780911F02822BE7
:10182000E7CF089521E030E001C0220F8A95EAF762
:10183000209580911F028223DBCF089521E030E0C4
:1018400001C0220F8A95EAF780911F028227D0CF2C
:10185000089590911F02892BCBCF089590911F027C
:101860008923C6CF089590911F028927C1CF08957B
:101870000895262F277091E001C0990F2A95EAF765
:1018800023E0769567952A95E1F7FB01EE0FFF1FA0
:10189000E60FF71FE40FF51F50E040E0682F70E0FF
:1018A0008191DF0111979B01042E02C03695279587
:1018B0000A94E2F7217021952827292328272C93C1
:1018C0004F5F5F4F4330510559F70895A82FA77018
:1018D00023E0969587952A95E1F7FC01EE0FFF1F0F
:1018E000E80FF91FE60FF71F50E040E080E021917C
:1018F00030E00A2E02C0369527950A94E2F721704F
:101900003327042E01C0220F0A94EAF7822B4F5F7F
:101910005F4F4330510559F70895282F983068F4E8
:10192000863058F4862F622F70E026E0929F600D7B
:10193000711D11244DE052E09CCF0895983068F459
:10194000863058F4292F90E06DE072E036E0239F56
:10195000800D911D1124BACF089580E00895CF9293
:10196000DF92FF920F931F93CF93DF936C0100914F
:101970001F0280912002082BC3E0D0E010E0FC2E73
:10198000C8010C2E02C0959587950A94E2F780FD58
:101990000CC02197A0F7F12C8F2DDF91CF911F91D3
:1019A0000F91FF90DF90CF900895B6018C2FA7D6AE
:1019B000019779F3F1CFCF93DF93EC01D0DFBE0134
:1019C0009ED6DF91CF9108951F93CF93DF93EB01C4
:1019D00090910C02992331F0CB01EDDFDF91CF9193
:1019E0001F910895882351F0CB01B9DF182F682F7C
:1019F000CE0193DFBE01812F82D6F0CFCB019EDFD7
:101A0000182FF8CFE1E0F0E0DF0102C0AA0FBB1F02
:101A10006A95E2F7BD01DF0102C0AA0FBB1F4A951C
:101A2000E2F76A2B01C0EE0F2A95EAF7962F98236A
:101A3000961302C08E2B0895E0958E230895242FCF
:101A4000462F682F80911F02DDDFD2CE08951F93AD
:101A5000CF93DF93C091210217E0809122028C1373
:101A600004C0DF91CF911F910895D0E01C9FF00139
:101A70001D9FF00D1124ED5DFD4F208131814281CC
:101A800053816481758186818CDE2196C770E5CF94
:101A900020915B0230915C0240915D0250915E02A8
:101AA00060915F0270916002809161027ACE089528
:101AB000CF93DF9380916102807F09F04BC08091CA
:101AC0006002882309F446C0E0912102509122026D
:101AD000C0915C02D0915B0260915D0270915E02E8
:101AE00047E05E17B9F18E2F90E0E49FF0011124DA
:101AF000ED5DFD4F2481222381F1489FF001499F34
:101B0000F00D1124DF01AD5DBD4F11962C911197A1
:101B10002C1323C02C912D1320C015962C911597B2
:101B200021111BC012962D913C91261B370B283C8E
:101B3000310598F4809161028F7080618093610219
:101B4000E75DFD4F80818F70806180838BE592E03F
:101B5000C9DD7DDFDF91CF910895FC013196E770FB
:101B6000C0CF482F209121029091220257E02913E3
:101B700002C080E0089530E0529FF001539FF00DC5
:101B80001124ED5DFD4F8181681306C080814813EB
:101B900003C085818111EECF2F5F3F4F2770E7CFC4
:101BA000A4E1B0E0E6EDFDE00C9490368C0186E017
:101BB000F801DE011F9601900D928A95E1F7F80178
:101BC0008481E5809BE5A92E92E0B92E90915F0279
:101BD00091111AC08823A9F0EE2089F0C801CCDD4C
:101BE000F82E882361F087E0F801D50101900D926D
:101BF0008A95E1F7C50103DB5BDF4ADF59C0C80105
:101C000071DDFF24F39454C0C080D1808280938022
:101C1000F090600220915D0230915E02A401421BAF
:101C2000530BFF2009F4E8C0483C510508F09BC065
:101C3000882309F43DC090915C0280916102282FB5
:101C4000207F09F055C0D91214C090915B02C912CF
:101C500010C0E11047C08F7080618093610218DF6F
:101C60008BE592E03FDD80916102F8018683F12CE3
:101C70001FC0E11037C06D2D8C2D73DF6D2D8C2DA5
:101C800070DFE82E8111F3CFCF86D88A8F859889AF
:101C900092DE292F22952F70243078F49F70223005
:101CA00098F09923A9F0F8019681907F89F4FE2C91
:101CB0008F2D6496ECE00C94AC362A50223060F004
:101CC000C80110DDEF2CF3CF992311F0882379F3AD
:101CD000805E8830A8F7EBCF803F48F3815F833088
:101CE00078F7E5CF80916102816080936102BFCF78
:101CF000D91212C090915B02C9120EC0E1100CC043
:101D00008683C801EFDC87E0F801ABE5B2E0019023
:101D10000D928A95E1F771CFC8012EDD882309F471
:101D20006ECFEE2009F46BCF80916102803280F09B
:101D300020915B0230915C02398728879B868A86D6
:101D400090915F029C871D868E87CE010896CADC23
:101D500087E0F801ABE5B2E001900D928A95E1F7DA
:101D6000A7DE96DE4ECF90916102292F207F89F465
:101D7000682D9A8A898AA6017A899E2D08DD8BE5CD
:101D800092E0B0DC87E0F50111928A95E9F780DEF8
:101D90006ECF882309F48CCF80915C028D110FC027
:101DA00080915B02C8120BC0E11009C09683C80184
:101DB00099DC87E0F50111928A95E9F779CFC8019E
:101DC000DBDC882309F41BCFEE2009F418CF8091C7
:101DD0006102803208F4BCCF20915B0230915C023A
:101DE0003A8329839C828B8290915F029D831E821D
:101DF0008F83CE010196ABCF483C5105A8F58823CF
:101E000009F4FFCEFE2CEE2009F4F9CE80915C029D
:101E10008D111EC080915B02C8121AC080916102B0
:101E200080FD0DC0982F907F51F08683903F09F47C
:101E300068CF982F907F905F8F70892B61CF87E05C
:101E4000F801ABE5B2E001900D928A95E1F730CF51
:101E5000C80192DC81117CCF809161028160809306
:101E60006102C8013FDC24CF682D9A8A898AA601C5
:101E70007A899E2D8CDC87E0F50111928A95E9F72D
:101E8000BCCEAEE0B0E0E7E4FFE00C9499362887E2
:101E900039874A875B876C877D878E87CE01089656
:101EA0007FDE882399F16C85662339F02885398592
:101EB0004A855B857D858E8574DC17E080912102E3
:101EC00090912202891709F457C0819FC001112403
:101ED0008D5D9D4F65DE882309F44EC0E09121029F
:101EE0001E9FF0011124ED5DFD4F20813181428163
:101EF000538164817581868154DC8091210290E058
:101F000001968770992780932102D8CF87E0FE0140
:101F10003896DE01119601900D928A95E1F78C8535
:101F2000882359F22091220230E0C901019687707E
:101F30009927409121024817190691F097E0929F46
:101F4000D001939FB00D1124AD5DBD4FFE013196C0
:101F500001900D929A95E1F78093220278DDADCF42
:101F6000EEDB109222021092210287E0EBE5F2E014
:101F7000DF011D928A95E9F72E96E3E00C94B536C1
:101F800080918A02869586958695089580918A0229
:101F90008770089590918A02977081E009F480E03B
:101FA00008958091B60208959091B602892B80938E
:101FB000B6020895982F90958091B6028923809358
:101FC000B60208951092B60208959091B502892B39
:101FD0008093B5020895982F90958091B50289233A
:101FE0008093B50208951092B50208950895FECF2A
:101FF000089590918B02292F282329F08095892319
:1020000080938B02F4CF08950895FECF08959091A8
:102010008C02292F2823281721F0982B90938C02CB
:10202000F4CF089590918C02292F282329F08095D0
:10203000892380938C02E9CF089580918C028823B4
:1020400021F010928C0280E0E0CF0895CF93C091F0
:10205000B6028091B502C82B80918C02882329F0AA
:10206000C82B0E943C2A8111E8DF8C2FCF91089564
:10207000CF93DF93C0910501D0910601E7DF8883FC
:10208000C0910501D091060148E050E062E872E09D
:10209000CE010E940D37892B59F088E0FE01A2E89D
:1020A000B2E001900D928A95E1F7CE010E94D92904
:1020B000DF91CF910895CF93DF93C0910301D09129
:1020C0000401C4DF8983C0910301D091040140E27F
:1020D00050E062E672E0CE010E940D37892B59F084
:1020E00080E2FE01A2E6B2E001900D928A95E1F74E
:1020F000CE010E94E429DF91CF91089580914C0197
:10210000882331F080915C0387FF02C0D4CF08950B
:10211000AFCF08950895FECF089590915D0392FF8B
:102120000FC098E0899F90011124622B60938A026E
:102130006EDB80918A02869586958695ECCF089510
:1021400066CB089510928A0280E0E5CF08959091C1
:102150008A028095892380938A02282F277059F458
:10216000891749F090915D0392FF05C08695869589
:10217000869558DBE7CF089590915D0392FB222767
:1021800020F9281759F080FB92F990935D03809114
:102190005C0390915D0334D082E0D9CF08958091A3
:1021A0005D0382FB882780F991E08927E5CF0895B8
:1021B00081E0E2CF089580E0DFCF08956FEF7FEFF9
:1021C00090E080E00C945E37089590E080E00E94FB
:1021D0003037853E9E4F19F40C94FC27089580E01B
:1021E000089582E090E00C942337089583E090E016
:1021F0000C942337089584E090E00C9430370895D0
:10220000BC0184E090E00C945E370895AB01BC0102
:102210008FE090E00C9456370895AB01BC0183E148
:1022200090E00C945637089560E070E0CB01F5CF54
:10223000089560E070E0CB01E9DFF6CF0895A8E0F3
:10224000B0E0E5E2F1E10C949A3665EE7EEF90E0C5
:1022500080E00E945E3760E082E090E00E944437B8
:1022600081E08093200261E083E090E00E944437A7
:1022700060E074E184E090E00E945E3760E086E018
:1022800090E00E94443760E087E090E00E9444378D
:1022900040E050E0BA0188E090E00E94563760E0EC
:1022A00083E290E00E94443760E08CE090E00E947E
:1022B000443760E08DE090E00E94443719821A8232
:1022C0001B821C821D821E821F82188648E050E0FD
:1022D00067E170E0CE0101960E94353740E050E0A2
:1022E000BA018FE190E00E94563780E00E941528E5
:1022F0000E9443289EDF2896E2E00C94B6369FCFDA
:102300000895682F8EE090E00C9444370895A6E07D
:10231000B0E0EDE8F1E10C9498360E94C42B8C01FA
:102320008091B7029091B8028017910781F01982CD
:102330001A820E94C42B682F49815A81792F80E02C
:1023400090E00E94D2081093B8020093B70226963C
:10235000E4E00C94B436EED26093C5027093C602EA
:102360008093C7029093C8026093C1027093C20227
:102370008093C3029093C402089508950895FDCFF9
:1023800008950895FECF089581E008958CEB94E1BF
:1023900041D7F4DFF4CF0895A2C4089508950895B5
:1023A000FDDFFDCF089511DF811101C0A8DF19DF26
:1023B0008093C90220DF90935D0380935C030E94A9
:1023C000232314DF00DA80911F0210CA08950E94AF
:1023D000BB2B8BD20E944E2887D4D0D3E4DF0E943F
:1023E000B0080E94252380E00E9421200E94171E31
:1023F00090D4C8CF0895A6E0B0E0E1E0F2E10C94FB
:102400009036C2DFC82E811110C081DFC12C67D485
:102410000E94491F0E949E22C1100E9475210E94A5
:10242000BA082696ECE00C94AC36C8D389EBA82EFB
:1024300082E0B82E750110E0F70101917F01812F34
:10244000A3D21F5F183009F43DC00817A9F380918B
:10245000C90281FD9FD2A0DF982E10E088248394CA
:10246000812F92D2082FF50181915F01081729F180
:10247000F12CEE24E394D02ED8268D2D8E21A9F0B8
:10248000992099F0F9821A830E94C42B9C838B8334
:102490008D8291E0802F8E2109F490E049815A814C
:1024A0006B817C818D810E94D208F394EE0CF6E062
:1024B000FF12E3CFF501319700831F5F183081F6DB
:1024C0004ADFA5CF0813C3CFA0CF1F93CF93DF93CD
:1024D00019D1EC01C11580E5D807E8F5C11580E4F4
:1024E000D80708F099C0C03ED10518F5CD3CD105FC
:1024F00008F081C0C83AD10570F4C53AD10508F09A
:1025000072C0C130D10511F118F0C430D105F0F41A
:10251000D0E0C0E01BC0C33CD105D0F7C85AD0E022
:10252000CC0FDD1FCA57DE4F0990D881C02DD4646F
:102530000DC0C11580E2D80708F0C6C0C11581E002
:10254000D80708F05AC0C83ED10510F7CE01DF9178
:10255000CF911F910895C03682E5D80718F5C03491
:1025600082E5D80708F066C0C03282E5D80708F0D7
:102570005AC0C11582E5D80708F48FC02C2F2695C4
:10258000269580E2289F900111248C2F8370C1E052
:10259000D0E002C0CC0FDD1F8A95E2F7C22BD32B0F
:1025A000DD68D4CFC03A82E5D80760F4C03882E550
:1025B000D80708F454C0CF71D0E0DC2FCC27C46F0B
:1025C000D06AC4CFC03C82E5D80708F45BC0C03EE7
:1025D00082E5D80708F09CCFDC2FCC27CC27DF7111
:1025E000C06FD06AB3CFC55AD0E0C454DE4FC881A3
:1025F000D0E0D064ABCFD065A9CF8D2F27D1182FD5
:10260000CE0199277FD0C12FD0E0DC2FCC27CC275B
:10261000DF71C82BD92B9ACFCE01992773D0CC2745
:10262000DF70D06AF6CFCF71D0E0DC2FCC27C16F3E
:10263000D06A8CCF2C2F26952695277080E2289F74
:10264000900111248C2F8370C1E0D0E002C0CC0F28
:10265000DD1F8A95E2F7DC68C22BD32B77CF2C2FB6
:1026600026952695277080E2289F900111248C2FB3
:102670008370C1E0D0E002C0CC0FDD1F8A95E2F785
:10268000DA68EACF8C2F8F71E1D0C82FD0E0DC2F31
:10269000CC27CC27DF71D06259CF8C2F8F71D6D049
:1026A00055E0D695C7955A95E1F7CF70D0E0DC2F6D
:1026B000CC27282F30E084FF05C044E0220F331FD1
:1026C0004A95E1F7D069C8CF8D2F8F71BFD0182FF1
:1026D000CE01992717D0C12FD0E0DC2FCC27CC27F3
:1026E000DF71906296CF783038F4663028F4462F48
:1026F000672F0C94F023089590E080E00895F3DFB5
:10270000E4CE089582389105B9F1B0F48133910592
:1027100009F47DC048F48932910509F46DC08A320C
:10272000910509F479C008958533910509F45FC0D6
:102730008933910509F10895833E9105D9F138F463
:10274000803E910529F1823E910579F10895863EFA
:102750009105D9F1873E910509F43EC0843E91056B
:1027600041F520915D0321FF24C080915C0384FD2D
:1027700019C087EE90E0089520915C03237009F062
:1027800056C020915D0323FF14C089E290E00895B4
:1027900020915C0320FD38C030915D0330FF09C0FB
:1027A00024FF3FC090E080E0089520915C0322FD6B
:1027B000F7CF089520915C0322FD36C030915D0370
:1027C00030FD35C024FDEECFF4CF20915C0323FF14
:1027D000F0CF24FDE7CFCDCF20915C0323FD2AC0AD
:1027E00030915D0331FFEECF84EE90E008952091AB
:1027F0005C0325FDCACF089520915C0325FD1DC013
:1028000020915D0323FFD5CF89E390E008952091C7
:102810005C0326FD15C0089520915C0326FD13C0BE
:10282000089583EE90E0089582EE90E0089580EEA2
:1028300090E0089586EE90E0089585E390E0089595
:102840008AE290E0089581E390E0B3CF90915C0339
:1028500092FF10C041E0282F2471243009F040E09D
:1028600031E0282F2871283009F030E0431711F0AB
:102870002CE0822793FF10C041E0282F24712431DF
:1028800009F040E031E0282F2871283109F030E0CC
:10289000431711F02CE0822730915D0330FF10C008
:1028A00051E0282F2171213009F050E041E0282F1C
:1028B0002871283009F040E0541711F029E08227F0
:1028C00031FF10C041E0282F2171213109F040E093
:1028D00031E0282F2871283109F030E0431711F03A
:1028E00029E0822794FD877E089510925E0310925E
:1028F0005F0310926003109261030895CF92DF92FC
:10290000EF92FF926B017C01EAD181110EC00E940F
:10291000D02BC61AD70AE80AF90AC0925E03D092F1
:102920005F03E0926003F0926103FF90EF90DF900D
:10293000CF9008950F931F93D2D1882329F00E943E
:10294000D02B1F910F9108950E94D02B00915E0310
:1029500010915F032091600330916103600F711F3C
:10296000821F931FEECFBBD1882319F00C94C42B88
:102970000895E0DFCB01089580E008950895FECF2B
:1029800008950895FECF0895E82FF0E0E559FC4F33
:1029900080810895089580EA8A95F1F7089500C02E
:1029A0000895F9CF08950895FECF0895EF92FF920C
:1029B0001F93CF93DF9300D000D0CDB7DEB78FD178
:1029C000182F60917303882309F445C019821A8275
:1029D0001B821C82862F90E09E012F5F3F4F790162
:1029E000B90185599C4FA1D18823E1F08091620300
:1029F00090E044E050E0B70185599C4F0E940D37AC
:102A000021E02093CA02892BC1F410E0BBDF812FA3
:102A10000F900F900F900F90DF91CF911F91FF902B
:102A2000EF9008958091CA02882379F384E0F7013A
:102A300011928A95E9F71092CA02E0916203F0E0E0
:102A4000E559FC4F89819A81AB81BC818083918358
:102A5000A283B383DBCF70E065597C4F8091620322
:102A600090E085599C4FE8D19FDFD1CFF894E82FB3
:102A7000E295EF70F0E031A1282F2F7081E090E017
:102A800001C0880F2A95EAF7982F9095932391A378
:102A900092A1892B82A378940895CF93DF9384E940
:102AA000E5DF86E6E3DF87E9E1DF86ECDFDFCFEB1A
:102AB000D1E089918F3F09F0D9DF81E0C53CD8078B
:102AC000C1F7DF91CF910895B0E0A0E0EAE6F5E12B
:102AD0000C949436EC01062F10E0C8018B539E4FE6
:102AE0007C01FC0190819F3F09F441C0D62EF894EF
:102AF000E92FE295EF70F0E081A19F7021E030E0D6
:102B000001C0220F9A95EAF7822B81A382A120951A
:102B1000282322A3789443DFEFEBF1E031E0C12CCE
:102B200021912F3F49F1A22FA295AF70B0E090966E
:102B30008C9190E02F7002C0959587952A95E2F7C9
:102B400080FD1AC0832FC82A330F81E0E53CF807C7
:102B500039F7F70180818F3F09F088DF61E0C1100C
:102B600001C060E08D2D1DDFC00FD11FC882CDB721
:102B7000DEB7E8E00C94B03680E0E5CF8091070145
:102B80008091070194E0811190E09093730384E0B9
:102B9000891B8093620381DF88E0EBE6F3E0DF01CD
:102BA000982F1D929A95E9F7E3E6F3E0DF011D9275
:102BB0008A95E9F784E03DD0E2CE0895A8E0B0E040
:102BC000E4EEF5E10C9497368E010F5F1F4F88E01D
:102BD000F80111928A95E9F7F12C6F2DC80174DF85
:102BE000F394F4E0FF12F9CF48E050E0B80183E637
:102BF00093E00E940D3721E0009709F420E0892B33
:102C000041F088E0F801A3E6B3E001900D928A95C7
:102C1000E1F76091730370E065597C4F44E083E60F
:102C200093E008D0182FC2DE812B2896E5E00C94A3
:102C3000B3360895B0E0A0E0E0E2F6E10C949436FB
:102C40006C017B01042FC22F222379F081E0809355
:102C5000CD020E94C42B9093CC028093CB0280E0E3
:102C6000CDB7DEB7E8E00C94B036D091CD02DD23CD
:102C7000B1F38091CB029091CC020E94DC2B05979E
:102C800070F310E0A801B601C7010E940D37892B2F
:102C900031F0A801B601C7010E941A37CD2F10925A
:102CA000CD028C2FDDCF1F93CF93DF93C8ECD0E004
:102CB0000E941536182F81110AC08FE39CE90197F5
:102CC000F1F700C00000219799F70E941136812F7B
:102CD000DF91CF911F9108958091D1020895809145
:102CE000D0020895FCCF0895DEDF8093D002FADF92
:102CF0008093D102F1DF80930701EEDF6BE188233F
:102D000031F080E023D3EBDF811146C008958BE1E1
:102D1000F9CFE5DF811101C042C0089581E09091B3
:102D2000D2029A3008F080E008950F931F93CF935A
:102D3000DF93EC018B018091D2028A30E8F4B80174
:102D4000CE0178D0C82F811122C08091D2028F3F4E
:102D500019F08F5F8093D2028091D2028A30D0F036
:102D60000E94C42B9093CF028093CE028C2FDF91D0
:102D7000CF911F910F9108958091CE029091CF0233
:102D80000E94DC2B843F9140D0F6C0E0EFCF109240
:102D9000D202ECCFC1E0EACF0C94E12D08950C945F
:102DA000E42D0895B0E0A0E0E8EDF6E10C9495364E
:102DB0007901C82F880FDD0B41155105A9F0FE01DF
:102DC00093E0EE0FFF1F9A95E1F7E85FFE4F8181D8
:102DD00092818D529D4F208130E04217530708F4B5
:102DE0009A01A9010E941A37CE010E94C52ED82E41
:102DF0008823D1F001151105B9F083E0CC0FDD1F58
:102E00008A95E1F7FE01E85FFE4F438150E0041729
:102E1000150708F4A801C85FDE4F6C817D816D52F3
:102E20007D4FC7010E941A378D2DCDB7DEB7E7E081
:102E30000C94B13663C1089586C10895A4E0B0E052
:102E4000E4E2F7E10C9498366091FB027091FC0289
:102E50008091FD029091FE020E94EB2B11E06436FE
:102E600071058105910508F165DD6E5F7F4F8F4F1C
:102E70009F4F69837A838B839C8310E000E030E06E
:102E800020E044E050E0BE016F5F7F4F83E08ADFC7
:102E9000182F882351F00E94D02B6093FB0270936F
:102EA000FC028093FD029093FE02812F2496E4E0C1
:102EB0000C94B436B0E0A0E0E0E6F7E10C94923672
:102EC000C82F7B01D42F69015801FB0160817181FA
:102ED000828193810E94EB2B6436710581059105F7
:102EE00010F4DD23C1F010E000E030E020E0A501A7
:102EF000B6018C2F57DFC82F882339F00E94D02BC2
:102F0000F70160837183828393838C2FCDB7DEB703
:102F1000EAE00C94AE36C1E0F8CFABE0B0E0E3E914
:102F2000F7E10C949836CE010196A1D541E08B854E
:102F3000811101C040E00BE010E09E012F5F3F4F88
:102F40006FEF72E084E0B6DF182F81118DD5812FED
:102F50002B96E4E00C94B436B0E0A0E0E2EBF7E1AD
:102F60000C9492367C015B016A01D8DE01E010E02E
:102F7000882311F00AE010E0C1E0D0E0B501C701FC
:102F8000F6010995811104C021960C171D072CF438
:102F9000CDB7DEB7EAE00C94AE36CC9F9001CD9F62
:102FA000300D300D112490E080E045E34A95F1F7B3
:102FB0000000019682179307C1F7E0CF0F931F938C
:102FC000CF93DF93EC016091C9017091CA016B5FEF
:102FD0007F4F44E050E00E940D3741E0892B09F417
:102FE00040E004E010E09E0167EF72E082E062DF03
:102FF000DF91CF911F910F910895A5E0B0E0E3E03C
:10300000F8E10C9492365B01E090C901F090CA019E
:1030100001E010E09E012B5F3F4F50E040E070E088
:1030200060E080E0BFDE182F882309F44AC0670102
:103030008FEFC81AD80A6091F3027091F402809160
:10304000F5029091F6020E94EB2B64367105810522
:10305000910578F104E010E09E012F5F3F4F50E0B2
:1030600040E070E060E081E09DDEF82E64E070E01A
:10307000C6010E94262311E09D81981310E01F21B4
:1030800059F10E94D02B6093F3027093F402809365
:10309000F5029093F60289819A81AB81BC8180937D
:1030A000EF029093F002A093F102B093F20211E0CC
:1030B00013C064E070E0C6010E9426239D8189133D
:1030C000C9CFF70181819281A381B48189839A83D9
:1030D000AB83BC831111DFCF8091EF029091F0029E
:1030E000A091F102B091F202F50180839183A28355
:1030F000B383812F2596EAE00C94AE360F931F938D
:10310000CF93DF93EC018B014DEF57E125DF811168
:1031100006C080E0DF91CF911F910F9108954EED91
:1031200057E1B801CE0118DF882399F34EE157E14A
:10313000B801CE0111DF882361F34DE857E1B801F2
:10314000CE010ADFE7CFABE0B0E0E9EAF8E10C94AA
:1031500094367C010091C9011091CA01C801019601
:1031600024E0FB01DC0101900D922A95E1F764E077
:1031700070E00E942623F8018083359684E0D70111
:1031800001900D928A95E1F7F8016185728583853A
:103190009485C090EB02D090EC02E090ED02F090AC
:1031A000EE026C157D058E059F0549F06093EB02DC
:1031B0007093EC028093ED029093EE029FDB8BE024
:1031C000F8013D96DE01119601900D928A95E1F786
:1031D000F801178A8B85882321F060E0CE010196E3
:1031E0007FD52B96E8E00C94B03605C908950E946F
:1031F0005B2B0E94A830CAD80E94C130E8D80E9438
:10320000CB300E94CF30F1DF0E94E5300E94842F46
:10321000C7D8F7CF9093FF018093FE010895EF92F6
:10322000FF920F931F93CF93DF93EB01E82FD11100
:103230000EC0442321F0F0E0E751FC4FE4916E2FE3
:103240007E2F8E2FCDB7DEB7E6E00C94B2360D2F71
:1032500010E0282F30E0442329F027513C4FF9019A
:10326000249130E0F6E0CF9FC0011124EFEFF0E0B1
:10327000BF010E943436AB018C2F90E0880F991F5C
:10328000A5E5A49FB001A59F700D1124861B970B87
:10329000982F990F980FBF01601B710B629FD0018F
:1032A000639FB00D729FB00D11248B2F9D9FB001B5
:1032B0001124672F7727EF01C61BD70BBE01629F32
:1032C000E001639FD00D729FD00D11247F01E91A98
:1032D000F108E09EB001E19E700DF09E700D11248A
:1032E000672F7727E61BF70BE29F8001E39F100D06
:1032F000F29F100D1124E12F722F42305105B1F0D1
:1033000048F44115510569F04130510561F0EB2F4A
:103310008D2F07C04430510589F060F046305105CB
:10332000B1F76E2F8FCFE22F7D2FFBCFE22F7B2FB8
:10333000812FF7CF7B2F822FED2FF3CFEB2F822F13
:10334000712FEFCF41E06BCF08950895E2E3F1E0F4
:10335000808361830895F6CF0895CF93DF93762F0E
:10336000E901682F842FF7DF798368838A83DF91EF
:10337000CF910895493708F048E7EFCF089580913D
:103380007403982F9C7F61F483708460809374032E
:1033900080917703893718F088E780937703089541
:1033A0008036B0F383708C65F1CFB0E0A0E0EBED38
:1033B000F9E10C94943688E090E00E942B376B0181
:1033C0007C0183E290E00E942337282F30E040E028
:1033D00050E060E070E080E090E000E20E94C136E2
:1033E000B22FA32FF42FE52FD62FC72F97018601D9
:1033F000BC29A12BFE295E2F532B2B2F3A2F4F2FA9
:103400006D2F7C2FCDB7DEB7E8E00C94B036B0E07E
:10341000A0E0EDE0FAE10C94903649015A016B010D
:103420007C01ADDF8401A4016A2D7B2D88E090E052
:103430000E94563794014A2D5B2DB601C70100E268
:103440000E94DC36622F83E290E00E944437CDB7C1
:10345000DEB7ECE00C94AC36E4E7F3E02081318198
:10346000428153816481758186819781D0CF08958F
:10347000E4E7F3E025E0208311828FEF828388E781
:1034800083831482A1E1B3E012968C91129783603A
:1034900012968C93758130E04FEF58E760E086819B
:1034A0009781B5CF08958091740380FF03C08695FE
:1034B0008695089580E00895809174038170089541
:1034C00090917803933018F49F5F9093780388234A
:1034D00089F02091740330917503409176035091E7
:1034E0007703609178037091790380917A039091CA
:1034F0007B038DCF089581E0E3CF08959091780309
:10350000992319F0915090937803882389F02091A2
:103510007403309175034091760350917703609165
:1035200078037091790380917A0390917B036FCF38
:10353000089581E0E3CF0895809178030895809302
:103540007803662381F0682F20917403309175030E
:1035500040917603509177037091790380917A03BB
:1035600090917B0354CF089560E0E9CF0895809156
:1035700075030895809176030895809177030895E7
:10358000609133018091740380FF0FC070E08091DF
:10359000320123E0829FC0011124E091E501F09106
:1035A000E60184589C4F09950895809134019091CB
:1035B000350123E0829FF0011124E458FC4F891764
:1035C00028F71182108212828F5F3396F8CF909184
:1035D000740390FF0DC0909134012091350133E0C8
:1035E000939FF0011124E458FC4F921710F0C8CFBC
:1035F00008958183608342839F5F3396F6CFA3E073
:10360000B0E0E5E0FBE10C949A369091740390FFF2
:1036100008C09E012F5F3F4FADDE4B8169818A81DB
:10362000D6DF2396E2E00C94B636CF93DF93EC011D
:10363000EC81F0E0E751FD4F4491E4E7F3E0628173
:103640008181DDDF8C818F5F8C83DF91CF91089545
:10365000CF93DF93EC01E4E7F3E0438162818C8157
:10366000CEDF8C818F5F8C83DF91CF910895A3E0B3
:10367000B0E0EDE3FBE10C949636182FF62E042F04
:10368000E22E8091740380FF3EC0209175032113C8
:1036900008C090917603961304C090917703941715
:1036A00029F090911303926090931303E82FE6950D
:1036B000E695F0E0E553FE4F9081909311038C7FE7
:1036C000843029F59E012F5F3F4F402F6F2D812FB2
:1036D00051DE4B8169818A817ADF10937503F09204
:1036E000760300937703EE2071F0209174036091CC
:1036F000780370917903312F4F2D502F80917A03E9
:1037000090917B0384DE2396E6E00C94B2369230EF
:1037100019F400917703E1CF963011F09930E9F672
:10372000122FDBCFE4E7F3E09181282F4381628100
:103730008AE0890F9CCF089581E0F4CF0895E4E7F3
:10374000F3E09181282F4381628186EF890F8FCF2B
:10375000089581E0F4CF0895E4E7F3E0628121E188
:10376000620F08F46FEF282F4381818180CF089585
:1037700081E0F2CF0895E4E7F3E0628121E1621B8A
:1037800008F460E0282F4381818171CF089581E0A2
:10379000F2CF0895E4E7F3E0438121E1420F08F41A
:1037A0004FEF282F6281818162CF089581E0F2CFAF
:1037B0000895E4E7F3E0438121E1421B08F440E08F
:1037C000282F6281818153CF089581E0F2CF08953F
:1037D00020E04DCF0895EF92FF921F93CF93DF9398
:1037E000EC0110E0EE24EA94F12C609136011617FA
:1037F00068F0C6DE9A818C8190FF26C08F5F8C8333
:10380000DF91CF911F91FF90EF90089520913401A7
:10381000422F410F5527551FCA019A01220F331F0E
:10382000280F391F24583C4F70E0C7010E944836CA
:10383000962F8C814091770360917603199F800DBC
:10384000112498DD1F5FD1CF8150D9CFB0E0A0E027
:10385000ECE2FCE10C949036EC018A81BB24B39439
:1038600080FF02C0BB24BA948C8181110AC081E020
:10387000B81221C08091360181508093040381E009
:103880008C83A12C46E3942E80913601A816B0F0CB
:1038900077DE8091040391E0B91258C0811151C0C4
:1038A000809136018150809304031C82CDB7DEB72E
:1038B000ECE00C94AC3610920403E1CF009134019B
:1038C000CA2CD12C0C0D1D2D111DC801880F991F5C
:1038D000080F191F04581C4FF80111821082128220
:1038E00034E0E32EF12C812C80910403880D873382
:1038F00014F1692D0E942736892F082E000C990B90
:10390000C816D90689F4809177038E9DA0018F9DFA
:10391000500D1124559547955595479598016091FF
:1039200076038091750326DD8B0CF1E0EF1AF10828
:10393000D9F6A394A9CF87FFE0CF90913601890FE4
:10394000DCCF815080930403BC82B0CF90E001961D
:103950006091360170E00E944836809304038C83A6
:10396000A5CFEF92FF920F931F93CF93DF93EC01BC
:103970008C81811109C081E08C831092030392E055
:103980009093310180933001809134019091350101
:1039900023E0829FF0011124E458FC4F891750F175
:1039A00010E003E060913601161750F1E9DD8091D7
:1039B000300120910303280F2093030390913101DC
:1039C000980F90933101191654F4022E000C330B0A
:1039D000409136014150550B2417350734F081953D
:1039E00080933001813009F41C82CDB7DEB7E6E068
:1039F0000C94B2361182108212828F5F3396CECF32
:103A0000E12EF12C70E0C7010E944836209134016C
:103A1000820F482F50E020910303022E000C330B3D
:103A2000E216F306B4F020913101022E000C330BA4
:103A30002E153F0574F0809F9001112424583C4FAF
:103A400040917703609176038091750393DC1F5F4B
:103A5000A9CFFA01EE0FFF1FE40FF51FE458FC4F4A
:103A6000118210821282F3CF10921303089528E07E
:103A7000E4E7F3E0DC0101900D922A95E1F7209153
:103A800011033091120340911303FC012087318709
:103A900042870895E1E1F3E01182828184608283AC
:103AA0000895E4E7F3E080818E7F8083F3DFE1E136
:103AB000F3E082818160828363CD0895EBDF8091A2
:103AC0000F03811109C081E080930F03809174037B
:103AD000817080930E03E5CF0895E4E7F3E0208141
:103AE0002E7F20833181428153816481758186815B
:103AF00097818DDCCFDFE1E1F3E082818160828319
:103B00003FCD0895609174036695669570E041E03D
:103B100050E087E391E00E940037892B19F481E09F
:103B2000809312030E94B3149093090380930803B7
:103B3000809113038460809313030895909174031C
:103B400090FF36C09370811134C0946090937403D9
:103B500080911303816080931303662389F0209181
:103B6000740330917503409176035091770360910F
:103B700078037091790380917A0390917B0347DCFD
:103B8000609174036695669570E041E050E087E3CC
:103B900091E00E940037892BA1F07CDF81E08093C7
:103BA0000B0340917703609176038091750310CEEB
:103BB0000895883110F09C65C9CF880F880F982B25
:103BC000C5CFA0DFEBCF682F9091740396959695A3
:103BD00081E0890F883108F081E0B0CF089581E05D
:103BE000F2CF0895682F90917403969596958FEF74
:103BF000890F09F487E1A2CF089581E0F3CF0895FA
:103C000061E09CCF0895E4E7F3E0808181608083E8
:103C100086958695F5CF08958091740380FF02C044
:103C20005CCF0895F0CF089560E088CF089580912B
:103C3000100381113BC0B9DB2093740330937503EB
:103C400040937603509377036093780370937903DE
:103C500080937A0390937B03809113038360809316
:103C600013032C7F91F404DCA0DB209374033093C6
:103C700075034093760350937703609378037093B2
:103C8000790380937A0390937B0379DB03DFE091E0
:103C9000E301F091E40109958091740380FF03C072
:103CA00086958695C1DF81E0809310030895E4E74F
:103CB000F3E080818160808386958695B5CF0895F5
:103CC0008091740380FF02C0ECCE0895F0CF089578
:103CD00010920F0380910E038111E9DF13CF089535
:103CE0001F93CF93DF93EC01162F8A8580FF0CC0C2
:103CF000888180FF22C08091740381608093740367
:103D00008881869586951ADF8A8581FF05C0212FD7
:103D10004B816A818981ABDC8A8582FF04C08985F9
:103D2000882369F0EFDE8A8583FF03C081E08093FA
:103D30000B03DF91CF911F910895B3DEE5CFAADE8B
:103D4000F2CFEF92FF920F931F93CF93DF93809167
:103D50001203882309F464C080911103E091740375
:103D6000E695E695E81BE0930A03823009F05DC012
:103D7000F0E0EB51FD4FE491CE2FD0E005E11BE1E7
:103D800080910B03882361F010920B030E94B314FF
:103D9000909309038093080310920D0310920C0373
:103DA0000E94B314E0910803F09109039C012E1BBB
:103DB0003F0B2F3F3F47A0F5209107032223B1F08F
:103DC000109207032091050330910603821B930B89
:103DD0008F3F9F4758F4205D3A4830930603209365
:103DE000050380911303886080931303E0900C0314
:103DF000F0900D03EC0FFD1FF0930903E09308030F
:103E000088E093E0F801099580910C0390910D03EF
:103E1000892B31F4E114F10419F081E08093070358
:103E2000CDB7DEB7E6E00C94B236863049F4F0E068
:103E3000EE51FD4FE491CE2FD0E008E21BE1A0CF80
:103E4000893051F4E695F0E0E152FD4FE491CE2F38
:103E5000D0E00BEE1BE194CF8F3051F4E695F0E00B
:103E6000E452FD4FE491CE2FD0E006E21CE188CF72
:103E7000C0EDD7E005EA19E1853109F081CFF0E026
:103E8000E752FD4FE491CE2FD0E001EB1CE178CF5B
:103E9000089557CF0895FA01811101C0FB010995DA
:103EA0000895CF93DF93C82FD62FFDDA8C1738F003
:103EB000FADA8D1720F493DEDF91CF9108958C2FDD
:103EC0009FDEFACF1F93CF93DF93FB011581111172
:103ED00024C0EC010E94D10F8272FE01E052F8472B
:103EE000E531F105C8F4E958F04E0C947D36921F87
:103EF000941F9A1F9F1FA41FA91FAE1FB31FB81F97
:103F0000BD1FC21FC71FCA1FCE1FD11FD41FD71F5F
:103F10008D1F8D1F8D1F8D1F11E0812FDF91CF9180
:103F20001F91089579DEF9CF4DEF5DE16FEE7DE1F0
:103F3000B2DFF3CF4FEE5DE16DEF7DE1F9CF49EAFE
:103F40005BE16CE97BE1F4CF4CE95BE169EA7BE1A1
:103F5000EFCF47EC5BE168EB7BE1EACF48EB5BE15D
:103F600067EC7BE1E5CF45EE5BE166ED7BE1E0CF21
:103F700046ED5BE165EE7BE1DBCF49E95AE16BE7BA
:103F80007AE1D6CF4BE75AE169E97AE1D1CF81E016
:103F900037DEC3CF65E082E084DFBFCF68E086E034
:103FA000FBCF6EE089E0F8CF64E18FE0F5CF67E109
:103FB00085E1F2CFAB0124E630E0BC0188E70E9446
:103FC000C22C21E0892B09F020E0822F0895AB015B
:103FD00024E630E0BC0188E70E94022D21E0892B15
:103FE00009F020E0822F08950F931F939B0104E6B0
:103FF00010E0AC0160E488E70E94442D21E0892BA9
:1040000009F020E0822F1F910F9108950C94902CBD
:1040100008950895FECF0895EEE1F4E080E092E087
:10402000DF019C011D9221503040E1F7F0932506FD
:10403000E09324068FEF9FEF9093400380933F031C
:104040000895CF930E945006E5DF80933B0380FDE7
:104050000FC080E880933A03D9DF6BE070E084E022
:1040600095E0B5DF811106C0C0E08C2FCF91089597
:1040700080E2F0CF80913B0365E070E081FD24C0D9
:104080008FEF94E0A4DF882379F36DE070E08DEE8C
:1040900094E09DDFC82F882339F30E94D02B605A0B
:1040A00075418F4F9F4F6093200670932106809338
:1040B000220690932306B0DF81E080933E03809335
:1040C0003D0310923C03D1CF8AEF94E0DBCF2091E7
:1040D0003A0336E0839FC0011124629F800D911D39
:1040E0001124811522E0920714F090E080E0825EB6
:1040F0009B4F9093250680932406089520912406D3
:10410000309125062851344040913A03642F70E0E5
:10411000C9010E943436481B463010F4240F311D6B
:10412000211582E0380710F030E020E0225E3B4F9E
:10413000309325062093240608951F93CF93DF9391
:10414000162F8A3031F481E06FD0DF91CF911F912B
:1041500008958D3011F480E0F7CFC0912406D091FE
:10416000250696E0FE01A4E1B3E001900D929A9538
:10417000E1F7803EB0F086E0FE0111928A95E9F702
:1041800011111BC0C0912406D091250646E050E0D5
:10419000BE0184E193E00E940D37892BE1F4AEDF8C
:1041A000D4CFF6E08F9FB0011124615F7A4F46E0D3
:1041B00050E0CE010E94F736E3CFE0912406F09163
:1041C00025069F012A5F3F4F2E173F07D9F28081B6
:1041D00080958193F9CFCE51D440CE0125E09695BC
:1041E00087952A95E1F721E030E0A90102C0440F4C
:1041F000551F8A95E2F7CA0140913F035091400351
:10420000842B952B259645E0D695C7954A95E1F7E1
:1042100002C0220F331FCA95E2F7822B932B909393
:10422000400380933F03BBCFCF93382FE091240608
:10423000F0912506EE51F44020913A03622F70E090
:10424000CF010E943436281B822F332361F066E0B1
:104250000E941B36C82FC15010F4CF91089560E022
:1042600080E26BDFF8CF9F01280F311D211532400E
:1042700018F080E0F0E0E0E08E0F9F2F911D825E4D
:104280009B4F9093250680932406E7CFFF920F93D0
:104290001F93CF93DF93EC01F62EFC0101900020D9
:1042A000E9F78F0101501109C017D10728F0CDB7E8
:1042B000DEB7E5E00C94B3366F2D89913EDFF4CF85
:1042C0001F93CF93DF93EC01162FFE018491811190
:1042D00004C0DF91CF911F910895612F2EDF2196A9
:1042E000F4CFEEDF81E0A0CF089580913E038111ED
:1042F00003C080913D0308950E94D02B605A754100
:104300008F4F9F4F60932006709321068093220663
:104310009093230680913D038111EBCF62E070E022
:104320008BEE94E054DE882321F381E080933D03FB
:10433000E0CFA4E0B0E0EFE9F1E20C948A362091FE
:104340003F0330914003232BE9F090913E039923E2
:10435000C9F090913C03911115C08C83C6DF10E029
:104360001B8244244394512C03E0E0E2FE2E809112
:104370003F0390914003009729F0112351F0FC81F5
:10438000F11107C02496E2E10C94A6362B812F5F31
:104390002B833B81C32ED12C520102C0AA0CBB1C23
:1043A0003A95E2F7950128233923232B79F380915D
:1043B0003B0380FD3AC08B818295880F8076809385
:1043C0003A019601369527953695279520933D011C
:1043D000815E80933B0120933E0167E070E088E3BB
:1043E00091E0E8DD882371F2C60155E0880F991F3E
:1043F0005A95E1F720913B0320FD25C060E270E073
:10440000825E9B4FF1DD882309F4BCCFC501809506
:104410009095A0903F03B0904003A822B922B0929B
:104420004003A0923F031F5FA2CF8B81880F880FAC
:10443000880F80933A0110923D01895F80933B0180
:1044400000933E01CACFAAE1B3E0EF2D1D92EA9599
:10445000E9F72BEE31E03A83298367EE71E0A98119
:10446000BA812D91BA83A983FB012190BF01280E47
:10447000392E311CA101425E5B4F1A0130E0265EED
:104480003C4FF90147E0942EAF01421B530B742CB3
:1044900001C0770C4A95EAF76101812CD601ED90B5
:1044A0006D01E720492D48194770642E042E000C39
:1044B000550BBE2D01C0BB0F6A94EAF76B2E5195C8
:1044C000419551094770552701C0E6944A95EAF78E
:1044D0006E28E0806E286082839448E08412DECFEC
:1044E0009A9431965FEF9512CFCFAFEEB1E0E981AC
:1044F000FA81AE17BF0709F0B2CF60E270E08AE13F
:1045000093E080CF80913D0390913E03911103C0D1
:1045100091E089270895882361F062E070E089EED8
:1045200094E055DD811103C080913D030895109200
:104530003D0380913D03ECCF81E008950F931F93DD
:1045400080913E03882369F180911E0690911F0699
:104550000E94DC2BC29758F00E94C42B90931F0638
:1045600080931E0660E080E0B2DD0E94610680E07C
:10457000E0DE80913D038823A1F00E94D02B0091C2
:104580002006109121062091220630912306601BFF
:10459000710B820B930B6F3F7F4F8F4F9F4708F438
:1045A000B1DF1F910F910895539A08952BB1277F82
:1045B0003BB138604FB7F894FC01CB01880F991FCD
:1045C000680F791F6E0F7F1FE617F70741F44FBF83
:1045D0008FE594E00197F1F700C000000895819104
:1045E00098E03BB9000000C087FF2BB9880F00009E
:1045F00000C000C000C02BB900C09A9591F7E4CF6D
:104600000C94DE1008950E946C16811106C084E09F
:104610000E94C41486958170089580E0F9CF0E94AD
:10462000DE152FEF86E791E0215080409040E1F7C2
:1046300000C000000E94DE15E6DF882319F0E0DFED
:104640000C942D2C0895EBCF08950895FC01680F6C
:10465000791F8FEF91E3E617F70709F40895219189
:10466000822728E030E087FF06C0880F8927215085
:104670003109C9F7F0CF880FFACF84E0089550E0F0
:10468000440F551F2CE0629F400D511D11249A01CB
:1046900060E6869F200D311D1124C901889608957A
:1046A0000F931F93CF93DF938430C0F46830B0F43E
:1046B0004630A0F4E4DF8C010E942337C82FD0E0FD
:1046C000DC2FCC27C80101960E9423379E01282B9E
:1046D000C901DF91CF911F910F91089590E080E083
:1046E000F8CF0F931F93CF93DF93843078F4683023
:1046F00068F4463058F4E901C2DF8C016D2F0E9446
:1047000044376C2FC80101960E944437DF91CF9146
:104710001F910F9108951F93CF93DF93D0E0C0E0D6
:1047200010C0412F6C2F8D2F0E9417079C01412F25
:104730006C2F8D2FD6DF1F5F163099F7CF5FC830F3
:1047400011F010E0EECFDF5FD43049F7DF91CF9169
:104750001F910895EF92FF920F931F93CF93DF93D2
:104760008C01EA017A01E60EF71EC8018896CE1583
:10477000DF0529F4CDB7DEB7E6E00C94B236003899
:1047800021E0120738F40E942337888321960F5FB7
:104790001F4FEBCF1882FACFB0E0A0E0E2EDF3E2DA
:1047A0000C9494367C016A018C01060F171FEC01F2
:1047B000CE018896C017D10729F4CDB7DEB7E8E05F
:1047C0000C94B036C03821E0D20740F4FE01EE1957
:1047D000FF09EC0DFD1D60810E9444372196E8CF52
:1047E000843030F4683020F4463010F459CF089506
:1047F00090E080E0089580E1089588E592E00895D2
:10480000EF92FF920F931F93CF93DF938C01EA01F6
:104810007A01E60EF71EC80188559E4FCE15DF05BA
:1048200029F4CDB7DEB7E6E00C94B236083522E0C5
:10483000120738F40E942337888321960F5F1F4F99
:10484000EACF1882FACFB0E0A0E0E9E2F4E20C94FB
:1048500094367C016A018C01060F171FEC01CE0112
:1048600088559E4FC017D10729F4CDB7DEB7E8E0D1
:104870000C94B036C83522E0D20740F4FE01EE19A0
:10488000FF09EC0DFD1D60810E9444372196E7CFA2
:10489000CF93DF93C8EAD1E060E0CE010E944437B5
:1048A0002196C11584E0D807B9F7DF91CF9108951B
:1048B000A8E0B0E0EEE5F4E20C949036F82E8FE03C
:1048C0008F1508F470C08FEF93E00E942337811199
:1048D0006AC008EA11E0F11034C0FE0131966F01A0
:1048E00088E011928A95E9F77801FFEFEF1AFF0A45
:1048F000C8010E94233789831A82882309F453C090
:104900008130D1F4580182E0A80EB11CC7010E9489
:1049100023378A83882309F446C09FEF980F93308A
:10492000E8F4780193E0E90EF11CC5010E942337F9
:104930008B838823C1F11C8260E0C60103D287010A
:10494000D3CF011594E0190771F1C8010E942337F4
:10495000811101C0FA940F5F1F4FBDCF75018430E4
:1049600059F74E01E3E08E0E911C02E010E0750154
:10497000FFEFEF1AFF0AC5010E942337F40181936C
:104980004F01882381F08C3741F4E2E0F0E0EC0F36
:10499000FD1FE00FF11F1082CFCF0F5F1F4F570198
:1049A0000730110521F72896ECE00C94AC36CF9334
:1049B000DF9386319C4709F5EB010E94D10F9D8161
:1049C000992391F08A7A91E009F490E09093410361
:1049D000811108C089E2F7D50E947E1080E0DF9146
:1049E000CF91089585E3F7CF80914103811103C0F2
:1049F00089E2FED5F1CF85E3FCCF81E0F0CFCF9304
:104A0000DF93EC01FB018581882309F4F5C09E0149
:104A100030572332310508F0D5C00E94FB10909327
:104A20005D0380935C03FE01E150F047E232F10543
:104A300008F026C0E25EFA4D0C947D367A25EE250C
:104A400082254C255025862554258A2596256025C6
:104A5000E72564259A2568259E25C6256C25A2256F
:104A6000CD257225A825B02558258E255C259225B3
:104A70007625AC25BC25D625E52546257E25F525BC
:104A800080915C03816080935C0393C080915D039F
:104A9000886080935D038DC080915C038260F3CF5A
:104AA00080915C038460EFCF80915C038860EBCFE2
:104AB00080915D038160EDCF80915D038260E9CFDD
:104AC00080915C038061DFCF80915C038062DBCFEB
:104AD00080915C038064D7CF0E949F0B80915C0320
:104AE0008068D1CF80915C038860DCCF80915D03CA
:104AF0008260E0CF80915C038E7FC5CF80915D03A3
:104B0000877FC7CF80915C038D7FBDCF80915C0391
:104B10008B7FB9CF80915C03877FB5CF80915D0398
:104B20008E7FB7CF80915D038D7FB3CF80915C0383
:104B30008F7EA9CF80915C038F7DA5CF80915C0390
:104B40008F7BA1CF0E949F0B80915C038F779BCFBF
:104B500080915C03877FDCCF80915D038D7FE0CF08
:104B600080915C0382FB992790F921E0922790FBCA
:104B700082F990FB83F987CF80915D03982F909500
:104B800091708E7F892B90FB81F983CF90915C038C
:104B9000892F8F7B96FF806476CF0E949F0B909128
:104BA0005C03892F97FB87F980586DCF81E00E94C5
:104BB000811180915C0390915D030E9400110E941D
:104BC0009F0B80E0DF91CF91089580E0F0CF90912E
:104BD0005C03892F8F7E94FF806155CF90915C0399
:104BE000892F8E7F90FF81604ECF90915D03892F3A
:104BF000877F93FF88604DCF81E0E4CFB0E0A0E0F5
:104C0000E4E0F6E20C949336E82FF0E0E15BF54F38
:104C1000B490282F26952695269530E0F901E1518C
:104C2000F54F0491877010E0082E02C01595079586
:104C30000A94E2F701701127F901E152F54FE4906F
:104C4000F12C082E02C0F594E7940A94E2F791E063
:104C5000E922FF24F901E153F54FC491D0E002C0ED
:104C6000D595C7958A95E2F7C170DD27C62ED12C60
:104C70000115110549F5E114F10431F086EE0E94A9
:104C80000709C601009771F5B6018B2D0E946C09CA
:104C9000C601009779F5E114F104A1F5011511059C
:104CA00031F081EE0E944409C6010097C9F5CD2B71
:104CB00031F08CE20E948209C114D104C9F5CDB74C
:104CC000DEB7E9E00C94AF3681EE0E940709C60119
:104CD000009789F2EFE9FFE03197F1F700C000009B
:104CE0000197F6CFEFE9FFE03197F1F700C0000040
:104CF0000197C8CFEFE9FFE03197F1F700C000005E
:104D00000197C7CF86EE0E944409C601009731F291
:104D1000EFE9FFE03197F1F700C000000197F6CF0F
:104D2000EFE9FFE03197F1F700C000000197BDCF38
:104D30008FE99FE00197F1F700C0000091E0C91AE8
:104D4000D108BACFEF92FF920F931F93CF93DF93C7
:104D5000EC01162F0AE08881882309F458C08130BD
:104D600009F052C08981813071F47E0182E0E80E41
:104D7000F11C8A810E948209E701812F90E000974F
:104D8000D9F52196E8CF823041F47E01E2E0EE0EC3
:104D9000F11C8A810E940709EFCF833041F47E0124
:104DA000F2E0EF0EF11C8A810E944409E5CF8430C5
:104DB00011F02196E2CF2A81229690E080E0AE01A8
:104DC0004F5F5F4F2053330B2A30310550F000976F
:104DD000A1F2EFE9FFE03197F1F700C00000019781
:104DE000F6CF089FB001099F700D1124C901860FED
:104DF000971F2981EA01E3CFEFE9FFE03197F1F74F
:104E000000C000000197BBCF612FF8DEBACFCDB74D
:104E1000DEB7E6E00C94B2360F931F93CF93DF9387
:104E2000C42FD22FFC0185818823C1F04093440315
:104E3000ABD4909343038093420380E28C0F88307D
:104E400040F4C77081E001C0880FCA95EAF70E945C
:104E50008A09DF91CF911F910F910895109144031A
:104E6000141331C08091420390914303A5D4883C30
:104E7000910548F5C0E2CD0F1D17B9F080E2810F12
:104E8000883040F4177081E001C0880F1A95EAF766
:104E90000E948F09C83010F581E09D2F977001C0E6
:104EA000880F9A95EAF70E948A09802F0E9482094A
:104EB000C83078F6D77081E001C0880FDA95EAF73C
:104EC0000E948F09C6CF80E28C0F883010F6C77021
:104ED00081E001C0880FCA95EAF7F2CF802F0E94C7
:104EE0008209B7CF0F93FC01E851FC47E730F10589
:104EF00008F039C0CB01E158F84D0C947D36952768
:104F00009B2786278F27A127A727AD2706E221EE1B
:104F100041EE6AE17CE780DF80E00F91089507E2CF
:104F200025EE45EE6BE17CE7F6CF06E221EE40EEA2
:104F300068E17CE7F0CF07E225EE44EE69E17CE72B
:104F4000EACF06E221EE42EE6CE17CE7E4CF07E235
:104F500025EE46EE6DE17CE7DECF08E221E045EE8E
:104F60006EE17CE7D8CFFB018581882319F0109290
:104F70004403D3CF81E0D1CF1F93CF93DF93873703
:104F80002CE7920729F088379C4729F1C1E011C02E
:104F9000FB01C581CC2391F026D00E94070C29D0BB
:104FA000D82F24D0C82F1FD04D2F6C2F0E941F0D3B
:104FB000C0E08C2FDF91CF911F91089514D00E94F3
:104FC000120C17D0182F12D0D82F0DD0412F6D2FC3
:104FD0000E941F0DEECFFB01C581CC2311F006D03E
:104FE000DCCF04D0ECCF8091410108958091400145
:104FF000089580913F01089584E290E00E94233754
:10500000853289F485E290E00E942337863059F496
:1050100086E290E00E94233791E0893009F090E029
:10502000892F8170089580E0FCCFCF93C82F6FEF58
:10503000811165E284E290E00E9444376FEFC11174
:1050400066E085E290E00E9444376FEFC11169E0AD
:1050500086E290E00E944437CF910895089587E258
:1050600090E00E942337682F70E090E080E0089580
:105070000895CF93C62FFCDF6C2F87E290E00E944B
:105080004437CF91089580E0D0DF60E070E0CB013D
:10509000F0DF41DBFDDB81E0C8CF0895DFDFDFDF3C
:1050A000E7DFAADF811101C0EECF08950C94601EE6
:1050B00008959C01FB018581882349F0A901575778
:1050C0004038510528F4C901F3DB80E0089581E000
:1050D00008952FEFFC012083089580E00895CF9379
:1050E000DF93EC0188818230E9F028F4813071F09F
:1050F000DF91CF9108958330F9F08430C9F70E9491
:10510000B71A89830E94BA1A8A83F2CF0E94BD1A05
:105110002FEF829FC001112468E770E00E943436AF
:105120006983E6CF0E945C1A882321F00E94531AFB
:105130008983DECF80E0FCCF0E949C1AF9CFCF9309
:10514000DF93EC018881823021F128F4813069F00D
:10515000DF91CF910895833041F18430C9F70E94E7
:10516000BD1A482F6A81898111C0898128E7829FF1
:10517000C00111246FEF70E00E943436D62F0E94D8
:10518000BA1AC82F0E94B71A4D2F6C2F0E94E81B25
:10519000DFCF8981811103C00E94511DD9CF0E94A8
:1051A000571E89810E94141ED3CF89810E94B41A90
:1051B000CFCFFC019C012E5F3F4F9081983039F09A
:1051C000993041F0973049F4C901B9CF0895C90128
:1051D00086CF08950C942C1A08958FEF808308953C
:1051E000FC012181223011F4E4CF089572CF08959B
:1051F000B0E0A0E0EEEFF8E20C949236EC01F62E6F
:105200006CDF81113AC0E881E150E33110F5F0E044
:10521000E45FF64D0C947D361F2923295F296F2901
:1052200076298029822982298229292929298629E2
:1052300089298C299829A429A629A829B429198261
:105240008CE08A8317C089818230E1F028F48130B4
:1052500061F08FEF88830EC08330B1F08430C9F7DE
:105260001A821B821C821D8205C09AD29A838B836C
:105270007C836D836F2DCE013FD6CDB7DEB7EAE0DC
:105280000C94AE36ECDEF2CFEA806E0183E0C80EFD
:10529000D11C10E000E0AE2CB12CC501800F911F95
:1052A000089740F78E2D800F0E94C414F601819359
:1052B0006F010F5F1F4F0C31110579F7DBCF89812B
:1052C000823029F0853029F68A81F0DED3CF6A81D9
:1052D0007B818C819D810E948336CBDECBCF4B813D
:1052E0006A818981DDD99C838D83C4CF2C813D81E6
:1052F0003227232732274B816A818981F2D9BACF9D
:105300000ADAB8CF6F2DCE016BDFB4CF74DA8983A0
:10531000B1CF73DA998395CF6B8170E089819A81DF
:10532000AE014C5F5F4F98278927982769DAA2CF93
:105330006B8170E089819A81AE014C5F5F4F982745
:105340008927982780DA96CFA3DA94CF96D9DFCF32
:105350006B8170E089819A81AE014C5F5F4F982725
:1053600089279827F7D986CF6B8170E089819A8148
:10537000AE014C5F5F4F9827892798270DDA7ACFC7
:1053800090934B0380934A0308950E946F168111F6
:1053900003C0809145030895E0914A03F0914B03C7
:1053A000309729F00190F081E02D0995089580E073
:1053B0000895E0914A03F0914B03309721F0028069
:1053C000F381E02D09950895E0914A03F0914B0394
:1053D000309739F026E0DC012C930480F581E02D34
:1053E00009950895A3E0B0E0E8EFF9E20C949A364D
:1053F000209148033091490328173907A1F0909371
:10540000490380934803E0914A03F0914B0330979E
:1054100051F023E029839B838A830084F185E02D6A
:10542000CE01019609952396E2E00C94B636A3E0EE
:10543000B0E0EDE1FAE20C949A3620914603309107
:10544000470328173907A1F0909347038093460339
:10545000E0914A03F0914B03309751F024E0298307
:105460009B838A830084F185E02DCE010196099506
:105470002396E2E00C94B636E0910501F091060126
:10548000329680914C01882371F080915C0387FFF4
:105490000AC0E0910301F091040132969EE180E0A0
:1054A000915018F4089596E0FACF21912223C1F388
:1054B0008F5FF6CF882321F190914C01992311F150
:1054C00090915C0397FF1EC0E82FE695E695E69560
:1054D000EE31B0F42091030130910401E20FF32F7B
:1054E000F11D228130E0877041E050E002C0440F9E
:1054F000551F8A95E2F72423352381E0232B91F46D
:1055000080E008952091050130910601F90132965D
:10551000285F3F4F9191981721F0E217F307D1F7D9
:10552000EFCF81E008959C01FC0132969FEF80E06F
:105530004191461751F09F3F19F4411101C0982F36
:105540008F5F8630A9F79F3F09F40895290F311D19
:1055500097FD3A95F90162830895FC013296089609
:105560002191261303C0DF0111971C92E817F90758
:10557000B9F70895E62FE695E695E695EE3168F4DD
:10558000E80FF92FF11D677021E030E001C0220F14
:105590006A95EAF78281822B82830895E62FE69549
:1055A000E695E695EE3170F4E80FF92FF11D67707E
:1055B00021E030E001C0220F6A95EAF72095828150
:1055C000282322830895682F80914C01882351F06D
:1055D00080915C0387FF06C08091030190910401D4
:1055E000C9CF089580910501909106019CCF08953F
:1055F000682F80914C01882351F080915C0387FFD4
:1056000006C08091030190910401C8CF0895809154
:10561000050190910601A1CF089580914C01882346
:1056200079F080915C0387FF0BC0E0910301F0915A
:10563000040132968EE1DF011D928A95E9F7089503
:10564000E0910501F0910601329686E0F4CF0895CD
:10565000FECF0895811105C081E080934C03F8CFFF
:10566000089582E0FACF83E080934C03F1CF089550
:10567000F1CF089581E080934C03EACF0895FACFEB
:10568000089508950895FECF089508950895F9CFD7
:105690000895CF93FADF0E94DE15F8DFC0E08C2F6B
:1056A0000E94C414811105C0CF5FC830C1F7CF91EB
:1056B000089581E0FCCF85B7806885BF85B7806895
:1056C00085BF08951F920F920FB60F9211248F93EA
:1056D0009F93AF93BF9380914D03811113C080912D
:1056E000260690912706A0912806B091290641969A
:1056F000A11DB11D8093260690932706A09328062E
:10570000B0932906BF91AF919F918F910F900FBEDB
:105710000F901F90189580912E06843031F10E94D1
:105720000D0810924D0388E190E020E40FB6F89444
:10573000A895809360000FBE2093600083B7817F9F
:10574000846083BF83B7816083BF7894889583B773
:105750008E7F83BF0FB6F894A89580916000886112
:1057600080936000109260000FBE08950E949F0B0E
:105770000C941508089582E084BD93E095BD9AEFDE
:1057800097BD80936E0008952FB7F89480912606F8
:1057900090912706A0912806B09129062FBF089561
:1057A0002FB7F894609126067091270680912806FD
:1057B000909129062FBF08959C014FB7F8948091CE
:1057C000260690912706A0912806B09129064FBF82
:1057D000821B930B0895CF92DF92EF92FF922FB727
:1057E000F894C0902606D0902706E0902806F09006
:1057F00029062FBFA7019601261B370B480B590B13
:10580000CA01B901FF90EF90DF90CF90089578948E
:105810001F920F920FB60F9211248F939F93AF9305
:10582000BF938091260690912706A0912806B091FB
:1058300029060196A11DB11D809326069093270687
:10584000A0932806B0932906BF91AF919F918F91A5
:105850000F900FBE0F901F90189587E797E79093D2
:1058600001088093000888E19AE00FB6F894A895A3
:10587000809360000FBE90936000FFCF88E19AE0B4
:105880000FB6F894A895809360000FBE90936000C7
:10589000FFCFEF92FF920F931F93CF93DF93182FB9
:1058A000EB011092BC0084EA8093BC006DDF7C01A8
:1058B0008091BC0087FF0DC08091B900887F88303F
:1058C000A1F08091B900887F803179F08FEF9FEF50
:1058D00007C0C70171DFC817D90750F78EEF9FEFD8
:1058E000CDB7DEB7E6E00C94B2361093BB0084E887
:1058F0008093BC0049DF8C018091BC0087FF0AC007
:105900008091B900887F883111F08034F9F690E0F9
:1059100080E0E6CFC80150DFC817D90768F7DECFAF
:105920001092B9008CE08093B80008950F931F93F4
:10593000CF93DF93EB018093BB0084E88093BC009E
:1059400023DF8C018091BC0087FF11C02091B9003A
:10595000287F81E090E0283211F490E080E091957A
:1059600081959109DF91CF911F910F910895CF3FBC
:10597000DC0741F3C80120DFC817D90718F78EEFFD
:105980009FEFF0CFB0E0A0E0E8ECFCE20C948F36A3
:10599000782E5B016A018901F7DE4C01C1E0D0E09D
:1059A0000431110558F0C5E0D0E00F3F100731F089
:1059B000C80164E170E00E943436EB01BE01872D1E
:1059C00068DF7C0197FF08C00F3F1007B9F3C401DF
:1059D000F3DE0817190790F7E501CA0CDB1CCC159C
:1059E000DD0511F0F7FE09C084E98093BC00C70112
:1059F000CDB7DEB7EDE00C94AB36B801899196DFF8
:105A00007C01EDCFB0E0A0E0E8E0FDE20C948F3641
:105A1000782E5B016A018901B7DE4C01C1E0D0E05C
:105A20000431110558F0C5E0D0E00F3F100731F008
:105A3000C80164E170E00E943436EB01BE01872D9D
:105A400028DF7C0197FF08C00F3F1007B9F3C4019E
:105A5000B3DE0817190790F7E501CA0CDB1CCC155B
:105A6000DD0511F0F7FE09C084E98093BC00C70191
:105A7000CDB7DEB7EDE00C94AB36FE018491B801F2
:105A800055DF7C012196EBCFB0E0A0E0EAE4FDE237
:105A90000C948E36682E762E5A01690175DE4C0103
:105AA000C1E0D0E00431110558F0C5E0D0E00F3F6F
:105AB000100731F0C80164E170E00E943436EB0158
:105AC000BE01862DE6DE7C0197FF1BC00F3F10074D
:105AD000B9F3C40171DE0817190790F784E98093C0
